:100C3C0075A15575A1AA53B9BF43B98075A1557556
:0E0C4C00A1AAE5B954F84403F5B9E4F5A122D4
:100C7400EF7802CEC313CE13D8F9FFEF4E60090507
:090C8400A1EF1F70F61E80F3229F
:100CA500AD07AC06ED4C600E7FE87E03120C74EDCB
:070CB5001D70F11C80EE220E
:040D300043C6102284
:100B6C00C29FD29EC29DC2CDC2CC438780E4757118
:100B7C0086757001F56FF56E7B0AFAF9F8AF71AEF8
:100B8C0070AD6FAC6E12094BAF038F72AF71AE705C
:100B9C00AD6FAC6EE47B0AFAF9F812094B8F718ECB
:100BAC00708D6F8C6EE572C394054011EF2401F5C6
:100BBC0071E43EF570E43DF56FE43CF56EE5895467
:100BCC000F4420F58943C9A0E571F404F58DD28E4C
:040BDC00D299D29C3C
:010BE00022F2
:080D10003098FDC298AF992252
:080D18008F993099FDC2992268
:0A0CFC00C2C7D2C5D2C475C2D92206
:080D200030C0FDC2C0AFC122CA
:080D28008FC130C1FDD2C122D0
:100CBC0075A15575A1AAEF600543B101800353B12D
:070CCC00FEE4F5A1F5FF2293
:030D34008FFF220C
:0A0D060075A15575A1AA43B1102292
:0E0CD300ABE243E2B07F017E00120CA58BE283
:010CE10022F0
:100C8D006578616D706C65406D61696C2E636F6D1B
:080C9D000053656372657400E9
:0A0CF10008080000000000000000E9
:0F0CE2008F088D0A120C5AE4F508F50A020C5A15
:100C0F008B738A748975AB73AA74A9751208F6FF72
:100C1F00601A24A3F50A120C5AE4F50A120C5A743E
:0D0C2F00012575F575E43574F57480DA2241
:1009DD00120C3C7F057E00120CA5120BE1D2B27FEA
:1009ED00C87E00120CA57D4C7F05120CE2C2B27FB1
:1009FD00C87E00120CA5D2B27FC87E00120CA5C213
:100A0D00B27FC87E00120CA5D2B27FC87E00120C38
:100A1D00A57BFF7A0C798D120C0FC2B27FC87E00B8
:100A2D00120CA5D2B27FC87E00120CA5C2B27FC82F
:100A3D007E00120CA5D2B27FC87E00120CA5C2B2E8
:100A4D007FC87E00120CA5D2B27FC87E00120CA505
:100A5D007D2BE4FF120CE27BFF7A0C799E120C0FBA
:100A6D00C2B27FC87E00120CA5D2B27FC87E001222
:100A7D000CA5C2B27FC87E00120CA5D2B27FC87E73
:100A8D0000120CA5C2B27FC87E00120CA5D2B27F97
:100A9D00C87E00120CA5C2B27FC87E00120CA5D272
:100AAD00B27FC87E00120CA57FF47E01120CA57DCD
:100ABD00047F01120CE27D4CE4FF120CE2C2B27F06
:100ACD00F47E01120CA5D2B27FF47E01120CA5C2E8
:030ADD00B280FEE6
:100BE100C2EAE4F5E275ED0075EC1675EF0075EEFD
:100BF1002075EA6775DC0275D242F5E375D180751F
:0E0C0100E22943D10175D8FF75E107D2EA223E
:100C5A0078207C007D007B007A0079087E007F087E
:0A0C6A001208D075D30853D2FC2203
:03000000020AE011
:0C0AE000787FE4F6D8FD758175020B27C5
:10080000E709F608DFFA8046E709F208DFFA803EDA
:1008100088828C83E709F0A3DFFA8032E309F608C7
:10082000DFFA8078E309F208DFFA807088828C832F
:10083000E309F0A3DFFA806489828A83E0A3F608E3
:10084000DFFA805889828A83E0A3F208DFFA804CBD
:1008500080D280FA80C680D4806980F28033801094
:1008600080A680EA809A80A880DA80E280CA8033FD
:1008700089828A83ECFAE493A3C8C582C8CCC58375
:10088000CCF0A3C8C582C8CCC583CCDFE9DEE78045
:100890000D89828A83E493A3F608DFF9ECFAA9F0C4
:1008A000EDFB2289828A83ECFAE0A3C8C582C8CC1A
:1008B000C583CCF0A3C8C582C8CCC583CCDFEADE33
:1008C000E880DB89828A83E493A3F208DFF980CC95
:1008D00088F0EF60010E4E60C388F0ED2402B4048E
:1008E0000050B9F582EB2402B4040050AF23234535
:0608F00082239008507302
:1008F600BB010689828A83E0225002E722BBFE0200
:09090600E32289828A83E4932232
:10090F0075F008758200EF2FFFEE33FECD33CDCC9F
:10091F0033CCC58233C5829BED9AEC99E582984022
:10092F000CF582EE9BFEED9AFDEC99FC0FD5F0D6FF
:10093F00E4CEFBE4CDFAE4CCF9A88222B800C1B929
:10094F000059BA002DEC8BF084CFCECDFCE5F0CB67
:10095F00F97818EF2FFFEE33FEED33FDEC33FCEBA0
:10096F0033FB10D703994004EB99FB0FD8E5E4F95B
:10097F00FA227818EF2FFFEE33FEED33FDEC33FC48
:10098F00C933C910D7059BE99A4007EC9BFCE99A3C
:10099F00F90FD8E0E4C9FAE4CCFB2275F010EF2F81
:1009AF00FFEE33FEED33FDCC33CCC833C810D70781
:1009BF009BEC9AE899400AED9BFDEC9AFCE899F8BC
:0E09CF000FD5F0DAE4CDFBE4CCFAE4C8F9224F
:100AEC000209DDE493A3F8E493A34003F68001F23A
:100AFC0008DFF48029E493A3F85407240CC8C3330B
:100B0C00C4540F4420C8834004F456800146F6DFD9
:100B1C00E4800B0102040810204080900CF1E47E6C
:100B2C00019360BCA3FF543F30E509541FFEE493CE
:100B3C00A360010ECF54C025E060A840B8E493A395
:100B4C00FAE493A3F8E493A3C8C582C8CAC583CAC0
:100B5C00F0A3C8C582C8CAC583CADFE9DEE780BE78
:010CFB0000F8
:00000001FF
